:100030009000CBE493C5F0A3E493C0E045F06036B4
:10004000D0E0C082C083F58285F08312019F120345
:10005000CED083D082A3C082C083120079120D411A
:10006000C5F0120199C5F0120199D083D082120314
:10007000C3A3A3A380BDD0E022E47350300053504B
:100080000050434F4E0054434F4E00544D4F4400D8
:10009000544C3000544C3100544830005448310026
:1000A00050310053434F4E005342554600503200EA
:1000B00049450050330049500050535700414343D5
:1000C00000420044504C0044504800007BE5802230
:1000D000007EE5812200C3E5822200C7E58322007D
:1000E00081E587220086E58822008BE58922009041
:1000F000E58A220094E58B220098E58C22009CE59D
:100100008D2200A0E5902200A3E5982200A8E599A1
:100110002200ADE5A02200B0E5A82200B3E5B022A0
:1001200000B6E5B82200B9E5D02200BDE5E0220026
:10013000C1E5F0220000900200E0C0E0A3E0C0E0D2
:10014000D082D083E0C0E0C083C082F583E090021B
:1001500000F0D082D083D082E0900201F0229002A1
:1001600001E075F055A4FAABF0900200E075F0558F
:10017000A42BFB900201E075F062A42BFBEA24198A
:10018000900201F0F5F0EB3436900200F0C5F02259
:10019000900200E0F5F0A3E02202094B02090502FB
:1001A000095302096902095F0209BF02034A0201F9
:1001B0005E1201AE1208E12202FFFC2274009002DE
:1001C00002F09000001201A222AF83AE82900000E4
:1001D00012021812023175F000E0601FB420028094
:1001E0001AC5F004C5F0C083C0828F838E82F0A34D
:1001F000AF83AE82D082D083A380DE1202068F83CB
:100200008E827400F022C083C082C3E58294009085
:100210000202F0D082D08322C083C082900202E02A
:10022000D082D0832582C0E0E5833400F583D0827C
:1002300022E06014B42011A3C083C082900202E0C7
:1002400004F0D082D08380E922AF83AE8212025FB5
:10025000A3A3A3E493F9740193C0E0C00122229008
:1002600002F2E49364FF602DA983A882A3EFFBEE62
:10027000FAE493FD740193F5828D83120A20EBFF5B
:10028000EAFE400B89838882A3A3A3A3A380D3D3D0
:100290008983888222C3222268656C70007065653C
:1002A0006B00706F6B6500726573657400636C65DD
:1002B00061720064756D70006C6F6164006C730036
:1002C00066696C6C00636F707900676F746F0069AA
:1002D00072616D007366720077726974650074658F
:1002E00073745F72616E6400746573745F676F74BA
:1002F0006F0000029803DA01029D049F0202A2042B
:10030000E40302A7048E0402AD07070502B3052724
:100310000602B807840702BD04330802C005BD0900
:1003200002C506150A02CA06620B02CF06860C0237
:10033000D406EE0D02D8071A0E02DE089E0F02E860
:1003400008D7FF0000077722222290037712019F2F
:10035000222290037F12019F2290038312019F2289
:1003600090037F12019F221B5B41001B5B42001B1D
:100370005B43001B5B44001B5B481B5B324A00086D
:100380002008001B2000E0120D6FF5F0A3E0120D15
:100390006FC454F045F0C422120386C0E0A31203D8
:1003A00086D0F022222222E6120D6F08F5F0E61226
:1003B0000D6FC454F045F0C422E06006B42003A3DE
:1003C00080F722740A120199740D1201992274099E
:1003D000120199227420120199221203C390022360
:1003E0001201C9C5F0704890105BE493FF7401934B
:1003F000FE4F603E7409120199C083C0828F838EC4
:100400008212019F7409120199120199D082D0833E
:10041000A3A3E493FF740193FEC083C0828F838EF5
:100420008212019F1203C3D082D083A3A380BB1288
:100430000777221203C39002231201C9C5F0704A44
:100440009011C7E493FF740193FE4F60407409124A
:100450000199C083C0828F838E8212019F7409121A
:100460000199120199D082D083A3A3E493FF740170
:1004700093FEC083C0828F838E8212019F1203C3BA
:10048000D082D083A3A3A3A380B9120777229002BE
:10049000231201C9C5F070031201B81207772212A6
:1004A00003C39002031201C99002231201C9C5F0CF
:1004B000702B9002031201A5743A12019974201254
:1004C000019990020312039885F083F582E0120DE2
:1004D00051F8E5F0120199E81201998003120777AB
:1004E0001203C3221203C39002031201C9C5F060B4
:1004F0002A900203120398C0E0C0F0780090021323
:100500001201C9C5F060187801900213120386D059
:1005100083D082F0A3C082C08380E212077722D00A
:10052000E0D0E0B801F5221203C39002031201C922
:100530009002231201C9C5F0705F90020312039864
:1005400085F083F5821203CEB19D1203C37910E5C5
:1005500083120D51C5F0120199C5F0120199E5827F
:10056000120D51C5F0120199C5F01201991203D470
:100570001203D41203D41203D47810E0120D51C523
:10058000F0120199C5F01201991203D41203D4A3F9
:10059000D8E91203C3D9B88003120777227CFF7B06
:1005A000100C7430120199EC540F120D3412019991
:1005B00074201201997420120199DBE5221203C301
:1005C0009002031201C9900203120398C0F0C0E028
:1005D0009002031201C9900203120398C0F0C0E018
:1005E0009002131201C9900213120386C0E0900218
:1005F000231201C9C5F0700FD005D006D007D082F4
:10060000D083120ADA800DD0E0D0E0D0E0D0E0D084
:10061000E0120777221203C39002031201C990026D
:1006200003120398C0F0C0E09002031201C99002C7
:1006300003120398C0F0C0E09002031201C99002B7
:10064000231201C9C5F07016900203120398ADF091
:10065000FCD006D007D082D083120AE980031207AB
:1006600077221203C39002031201C99002231201E0
:10067000C9C5F0700D900203120398C0E0C0F022CB
:100680008003120777221203C39002231201C9C507
:10069000F070577F011203CEB19D1203C37F08781B
:1006A000007E10E8F5F0C4540F120D34120199E5E4
:1006B000F0540F120D34120199C0077F011203CEBE
:1006C000D007E6F5F0C4540F120D34120199E5F08D
:1006D000540F120D341201997420120199120199CC
:1006E00008DEDF1203C3DFB980031207772212038B
:1006F000C39002231201C9C5F06003020703120070
:10070000308003120777229002231201C9C5F070CE
:10071000051201AB8003120777221203C31203B93B
:10072000E6B4704F08E608B4300A1203B91203A702
:10073000F5808041B4310A1203B91203A7F5908005
:1007400034B4320A1203B91203A7F5A08027B433D8
:100750000A1203B91203A7F5B0801AB4631508E6AC
:10076000B46F1008E6B46E0B081203B91203A7F5B4
:10077000878002D322C3221203C39010D412019F98
:100780001203C3221203C39002031201C990022371
:100790001201C9C5F0600302087D900203E0C0E0C9
:1007A000A3E0D0F0120D61A3C082C083900234F0A8
:1007B000D083D082E0C0E0A3E0D0F0120D619002BF
:1007C00035F012019CB43AFA9002367400F012012E
:1007D0009CC0E012019CD0F0120D61900233F01227
:1007E000088412019CC0E012019CD0F0120D61122D
:1007F000088412019CC0E012019CD0F0120D61121D
:10080000088412019CC0E012019CD0F0120D61120C
:100810000884900237F0900233E0FF603212019CAE
:10082000C0E012019CD0F0120D61C0E0900234E0F3
:10083000C0E0A3E0F582D083D0E0F0120884A3C02A
:1008400082C083900234D0E0F0A3D0E0F0DFCE127B
:10085000019CC0E012019CD0F0120D61120884903E
:100860000236E07007742E12019980057478120127
:10087000991203D4900237E070060207C21207777C
:100880001203C322C0E0C0F0C082C083F5F0900222
:1008900036E025F0F0D083D082D0F0D0E0221203F1
:1008A000C3785579101201AEC0E0C5F0120D41C5F4
:1008B000F0120199C5F0120199D0E0120D41C5F076
:1008C000120199C5F0120199D9071203C37910805A
:1008D000031203D4D8CF2285088385A5821206622D
:1008E0002253890F438920758DFF43878075985067
:1008F000D28E7400900238F0900239F090023AF0F3
:1009000090023BF022C082C083900238E0F5F09064
:100910000239E0B5F00280F7900100E5F025825041
:10092000020583F582E0C0E0E5F004900238F09023
:10093000023AE014F0B4400C90023BE06006759976
:10094000117400F0D0E0D083D08222F5993099FD67
:10095000C29922740093600612094BA380F522E02D
:10096000600612094BA380F722AF83AE82120905FD
:10097000F5F06047640D6043E5F0640A603DE5F022
:10098000640870028006E5F0647F7026E583B50791
:1009900007E582B5060280D5E582C39401F582E5BC
:1009A000839400F583C082C083120360D083D08219
:1009B00080BBE5F0F0A312094B80B27400F022C0B6
:1009C000E0C0F0C0D0C082C083E8C0E020980280C0
:1009D0002FC298E599F5F0900239E0F804F0900103
:1009E00000E8258250020583F582E5F0F090023A96
:1009F000E004F0B4C00A7413F59990023B7401F05E
:100A0000D0E0F8D083D082D0D0D0F0D0E0329001C6
:100A10000022900239E0F5F0900238E0C395F02210
:100A2000E493F5F0C082C0838F838E82E065F0701E
:100A300010E5F0600FA3AF83AE82D083D082A38095
:100A4000DFC38001D3D083D08222E493F5F0E6B5F2
:100A5000F00608A3DAF4E4227401228E838F82E484
:100A600093C39D7004DCF880067E007F00D322AE25
:100A700083AF82C3228E838F82E4E0600DC39D70BA
:100A800004DCF680057E007F0022AE83AF82228EDA
:100A9000838F82E493F5F0A3AE83AF828C838D8243
:100AA000E0C395F0700DDBEBA3AC83AD828E838F3A
:100AB00082800840037F01227FFF227F00228E83F5
:100AC0008F82E493F5F0A3AE83AF828C838D82E5B1
:100AD000F0F0A3AC83AD82DBE522EE4F600AEDF0CF
:100AE000A31EBEFF011F80F222EC4D601BE0A3C0DD
:100AF00082C0838F838E82F0A3AF83AE82D083D0F7
:100B0000821CBCFF011D80E122900B1012019F226C
:100B10005F5F5F5F5F2F5C5C5C5C5C5C5C5C5C5C33
:100B20005C5C5F5F5F5F2F5C5C5C5C5C5C5C5C5C26
:100B30005C5C5C5F205F5F5F5F5F5F2F5C5C5C5C49
:100B40005C5C5F20202020202020200A0D205F5F99
:100B50005F2F5C5C5C2F2F2F2F2F2F2F2F2F2F5FBE
:100B60005F5F5F5C2F5C5C5C2F2F2F2F2F2F2F2F51
:100B70002F2F2F5F5F205F5F2F5C5C5C5C5C5C5C99
:100B80005F202020202020200A0D20205F5F2F5C86
:100B90005C5C5F5F5F5F5F5F5F5F5F5F5F5F5F5F6B
:100BA0005F5C2F5C5C5C5F5F5F5F5F5F5F5F5F5F91
:100BB0005F5F5F205F5C2F2F2F2F2F5C5C5C5F20BF
:100BC00020202020200A0D2020205F5C2F5C5C5C10
:100BD0005F5F5F5F2F5C5C5C5C5C5C5C5F5F5F5C6D
:100BE0002F5C5C5C5C5C5C5C5C5C5C5C5C5F5F5F69
:100BF0005F5F5F5F5F5F5F5C2F5C5C5C5F202020FE
:100C000020200A0D202020205F5C2F5C5C5C5F5F51
:100C10005F5C2F2F2F2F2F5C5C5C5F5F5F5C2F2F43
:100C20002F2F2F2F2F2F2F2F2F2F5C5C5C5F5F5FBD
:100C30005F5F5F5F5F5C2F5C5C5C5F202020200A51
:100C40000D20202020205F5C2F5C5C5C5F5F5F5F7D
:100C50005F5F5F5C2F5C5C5C5F5F5F5F5F5F5F5FE0
:100C60005F5F5F5F5F5F5C2F2F5C5C5C5F5F5F5F00
:100C70005F5F5F5C2F5C5C5C5F2020200A0D2020A2
:100C8000202020205F5C2F5C5C5C5F5F5F5F5F5FAC
:100C90005F5C2F5C5C5C5F5F5F2F5C5C5C5F5F5FD9
:100CA0005F5F5F5F5F5C2F5C5C5C5F5F5F5F5F5F90
:100CB0005F5C2F5C5C5C5F20200A0D2020202020E0
:100CC00020205F5C2F2F5C5C5C5C5C5C5C5C5C5C33
:100CD0005C5C2F5F5F5F5C2F2F5C5C5C5C5C5C5CD2
:100CE0005C5C5C5C5C5C2F5F5F5F5F5F5F5F5F5C59
:100CF0002F5C5C5C5F200A0D20202020202020201B
:100D00005F5F5C2F2F2F2F2F2F2F2F2F2F2F2F5F36
:100D10005F5F5F5F5F5C2F2F2F2F2F2F2F2F2F2FC6
:100D20002F2F2F5F5F5F5F5F5F5F5F5F5F5C2F2FC6
:100D30002F5F2000B40A00400524374420222430CD
:100D400022F5F0C4540F120D34C5F0540F120D34B7
:100D500022FFC4540F120D34F5F0EF540F120D346E
:100D600022C5F0120D6FC4C5F0120D6F45F022C3FD
:100D70009430B40A004005C344209427220909098D
:100D8000436F70797269676874203230323520475A
:100D9000696E6F204D616C706172746964610A0DD7
:100DA000000A0D006735313E200068656C700064F4
:100DB0006973706C617973206C697374206F66203D
:100DC000617661696C61626C6520636F6D6D616EE7
:100DD00064732E006C7300646973706C61797320A6
:100DE000617661696C61626C65206170706C6963C9
:100DF0006174696F6E732E007065656B0065786154
:100E00006D696E6520612073696E676C65206D6524
:100E10006D6F72792063656C6C2E0065782E207082
:100E200065656B203162326300706F6B65006D6FBA
:100E30006469667920612073696E676C65206D65F1
:100E40006D6F72792063656C6C2E0065782E207052
:100E50006F6B6520316232632035350064756D70CB
:100E600000646973706C61797320612032353620BB
:100E70006D656D6F727920626C6F636B2E006578A3
:100E80002E2064756D7020313200636C65617200D4
:100E9000636C6561722073637265656E20616E6458
:100EA00020686F6D65732074686520637572736F59
:100EB000722E00726573657400706572666F726D74
:100EC000206120736F66742D7265736574206F6680
:100ED000207468652073797374656D2E0066696C83
:100EE0006C00696E697469616C697A657320612050
:100EF0006D656D6F727920626C6F636B20776974BA
:100F00006820612073706563696669632062797423
:100F1000652E0065782E2066696C6C203161623721
:100F200020666620316100636F707900636F7069BD
:100F30006573206120626C6F636B206F6620646153
:100F400074612066726F6D206F6E65206D656D6FC8
:100F50007279206C6F636174696F6E20746F2061A9
:100F60006E6F746865722E0065782E20636F7079DD
:100F70002032643466203833626420613500676F44
:100F8000746F006A756D707320746F2061206C6FD0
:100F9000636174696F6E20696E2070726F67726131
:100FA0006D206D656D6F727920746F206578656353
:100FB00075746520636F64652E0065782E20676FF9
:100FC000746F2038616533006972616D0064697304
:100FD000706C6179732074686520636F6E74656EE0
:100FE0007473206F662074686520696E7465726E14
:100FF000616C206D656D6F727920617265612E0084
:1010000073667200646973706C61797320746865CB
:10101000207370656369616C2066756E6374696FB7
:101020006E207265676973746572732E00777269DA
:101030007465006D6F6469667920616E20736672F5
:101040002072656769737465722C0065782E20774D
:1010500072697465207031203535000DAA0DAF0D11
:10106000D40DD70DF80DFD0E290E2E0E5C0E610E5F
:101070008A0E900EB30EB90EDD0EE20F270F2C0F65
:101080007E0F830FC80FCD10001004102D103300F9
:1010900000000068656C70006C73007065656B0023
:1010A000706F6B650064756D7000636C65617200D4
:1010B00072657365740066696C6C00636F707900AB
:1010C000676F746F006972616D007366720077728A
:1010D00069746500496E76616C696420436F6D6D5B
:1010E000616E640054686520717569636B2062727B
:1010F0006F776E20666F78206A756D7073206F76DB
:10110000657220746865206C617A7920646F672E3F
:10111000004D656D6F727920746573742066616926
:101120006C65642E004D656D6F7279207465737403
:10113000207375636365656465642E006C63640089
:10114000416C6C6F77732074657374696E67206F80
:101150006620746865206C63642073637265656ED5
:1011600020696E2050312C2050330070776D004183
:101170006C6C6F77732074657374696E67206F662B
:10118000207468652070776D206170706C69636190
:1011900074696F6E2E00767431303200416C6C6F62
:1011A00077732074657374696E6720746865205660
:1011B00054313032206573636170652073657175D9
:1011C000656E6365732E00113C11400347116B116E
:0F11D0006F03481196119C0349000000000000B6
:040000000211DF32D8
:01000B0032C2
:0100130032BA
:01001B0032B2
:030023000201A82F
:1011DF0075812F1201B1D2ACD2AF1201AB900B10AF
:1011EF0012019F1203C3900D7D12019F1203C3744E
:1011FF00FF90023CF0A3F0900DA412019F1201BCCE
:10120F0090023C1201C990023C1202491203C380A2
:01121F00E6E8
:00000001FF
